{
  "contractName": "M8BadgeToken",
  "abi": [
    {
      "constant": true,
      "inputs": [],
      "name": "name",
      "outputs": [
        {
          "name": "",
          "type": "string"
        }
      ],
      "payable": false,
      "stateMutability": "view",
      "type": "function"
    },
    {
      "constant": false,
      "inputs": [
        {
          "name": "_to",
          "type": "address"
        },
        {
          "name": "_tokenId",
          "type": "uint256"
        }
      ],
      "name": "approve",
      "outputs": [],
      "payable": false,
      "stateMutability": "nonpayable",
      "type": "function"
    },
    {
      "constant": true,
      "inputs": [
        {
          "name": "",
          "type": "uint256"
        }
      ],
      "name": "badgeIndexToOwner",
      "outputs": [
        {
          "name": "",
          "type": "address"
        }
      ],
      "payable": false,
      "stateMutability": "view",
      "type": "function"
    },
    {
      "constant": false,
      "inputs": [
        {
          "name": "_txHash",
          "type": "uint256"
        },
        {
          "name": "_challengeId",
          "type": "string"
        },
        {
          "name": "_owner",
          "type": "address"
        }
      ],
      "name": "create",
      "outputs": [
        {
          "name": "",
          "type": "uint256"
        }
      ],
      "payable": false,
      "stateMutability": "nonpayable",
      "type": "function"
    },
    {
      "constant": true,
      "inputs": [],
      "name": "totalSupply",
      "outputs": [
        {
          "name": "",
          "type": "uint256"
        }
      ],
      "payable": false,
      "stateMutability": "view",
      "type": "function"
    },
    {
      "constant": false,
      "inputs": [
        {
          "name": "_from",
          "type": "address"
        },
        {
          "name": "_to",
          "type": "address"
        },
        {
          "name": "_tokenId",
          "type": "uint256"
        }
      ],
      "name": "transferFrom",
      "outputs": [],
      "payable": false,
      "stateMutability": "nonpayable",
      "type": "function"
    },
    {
      "constant": true,
      "inputs": [],
      "name": "allWallets",
      "outputs": [
        {
          "name": "",
          "type": "address[]"
        }
      ],
      "payable": false,
      "stateMutability": "view",
      "type": "function"
    },
    {
      "constant": true,
      "inputs": [
        {
          "name": "",
          "type": "uint256"
        }
      ],
      "name": "badgeIndexToApproved",
      "outputs": [
        {
          "name": "",
          "type": "address"
        }
      ],
      "payable": false,
      "stateMutability": "view",
      "type": "function"
    },
    {
      "constant": true,
      "inputs": [
        {
          "name": "_tokenId",
          "type": "uint256"
        }
      ],
      "name": "ownerOf",
      "outputs": [
        {
          "name": "owner",
          "type": "address"
        }
      ],
      "payable": false,
      "stateMutability": "view",
      "type": "function"
    },
    {
      "constant": true,
      "inputs": [
        {
          "name": "_owner",
          "type": "address"
        }
      ],
      "name": "balanceOf",
      "outputs": [
        {
          "name": "count",
          "type": "uint256"
        }
      ],
      "payable": false,
      "stateMutability": "view",
      "type": "function"
    },
    {
      "constant": false,
      "inputs": [
        {
          "name": "wallet",
          "type": "address"
        }
      ],
      "name": "addDonationWallet",
      "outputs": [
        {
          "name": "",
          "type": "uint256"
        }
      ],
      "payable": false,
      "stateMutability": "nonpayable",
      "type": "function"
    },
    {
      "constant": true,
      "inputs": [
        {
          "name": "_owner",
          "type": "address"
        }
      ],
      "name": "tokensOfOwner",
      "outputs": [
        {
          "name": "ownerTokens",
          "type": "uint256[]"
        }
      ],
      "payable": false,
      "stateMutability": "view",
      "type": "function"
    },
    {
      "constant": true,
      "inputs": [
        {
          "name": "_challengeId",
          "type": "string"
        }
      ],
      "name": "claimedChallengeTransactions",
      "outputs": [
        {
          "name": "txHashes",
          "type": "uint256[]"
        }
      ],
      "payable": false,
      "stateMutability": "view",
      "type": "function"
    },
    {
      "constant": true,
      "inputs": [
        {
          "name": "_tokenId",
          "type": "uint256"
        }
      ],
      "name": "getBadge",
      "outputs": [
        {
          "name": "challenge",
          "type": "string"
        },
        {
          "name": "face",
          "type": "uint256"
        },
        {
          "name": "mask",
          "type": "uint256"
        },
        {
          "name": "color",
          "type": "uint256"
        },
        {
          "name": "txHash",
          "type": "uint256"
        }
      ],
      "payable": false,
      "stateMutability": "view",
      "type": "function"
    },
    {
      "constant": true,
      "inputs": [],
      "name": "owner",
      "outputs": [
        {
          "name": "",
          "type": "address"
        }
      ],
      "payable": false,
      "stateMutability": "view",
      "type": "function"
    },
    {
      "constant": true,
      "inputs": [],
      "name": "symbol",
      "outputs": [
        {
          "name": "",
          "type": "string"
        }
      ],
      "payable": false,
      "stateMutability": "view",
      "type": "function"
    },
    {
      "constant": false,
      "inputs": [
        {
          "name": "_to",
          "type": "address"
        },
        {
          "name": "_tokenId",
          "type": "uint256"
        }
      ],
      "name": "transfer",
      "outputs": [],
      "payable": false,
      "stateMutability": "nonpayable",
      "type": "function"
    },
    {
      "constant": false,
      "inputs": [
        {
          "name": "walletId",
          "type": "uint256"
        }
      ],
      "name": "deleteWallet",
      "outputs": [
        {
          "name": "",
          "type": "uint256"
        }
      ],
      "payable": false,
      "stateMutability": "nonpayable",
      "type": "function"
    },
    {
      "constant": false,
      "inputs": [
        {
          "name": "newOwner",
          "type": "address"
        }
      ],
      "name": "transferOwnership",
      "outputs": [],
      "payable": false,
      "stateMutability": "nonpayable",
      "type": "function"
    },
    {
      "inputs": [],
      "payable": false,
      "stateMutability": "nonpayable",
      "type": "constructor"
    },
    {
      "anonymous": false,
      "inputs": [
        {
          "indexed": true,
          "name": "previousOwner",
          "type": "address"
        },
        {
          "indexed": true,
          "name": "newOwner",
          "type": "address"
        }
      ],
      "name": "OwnershipTransferred",
      "type": "event"
    },
    {
      "anonymous": false,
      "inputs": [
        {
          "indexed": false,
          "name": "from",
          "type": "address"
        },
        {
          "indexed": false,
          "name": "to",
          "type": "address"
        },
        {
          "indexed": false,
          "name": "tokenId",
          "type": "uint256"
        }
      ],
      "name": "Transfer",
      "type": "event"
    },
    {
      "anonymous": false,
      "inputs": [
        {
          "indexed": false,
          "name": "owner",
          "type": "address"
        },
        {
          "indexed": false,
          "name": "approved",
          "type": "address"
        },
        {
          "indexed": false,
          "name": "tokenId",
          "type": "uint256"
        }
      ],
      "name": "Approval",
      "type": "event"
    },
    {
      "anonymous": false,
      "inputs": [
        {
          "indexed": false,
          "name": "owner",
          "type": "address"
        },
        {
          "indexed": false,
          "name": "badgeId",
          "type": "uint256"
        }
      ],
      "name": "Creation",
      "type": "event"
    }
  ],
  "bytecode": "0x606060405234156200001057600080fd5b33600460006101000a81548173ffffffffffffffffffffffffffffffffffffffff021916908373ffffffffffffffffffffffffffffffffffffffff160217905550620000a860006040805190810160405280600b81526020017f4368616c6c656e6765203000000000000000000000000000000000000000000081525033620000af64010000000002620009e7176401000000009004565b5062000802565b6000600460009054906101000a900473ffffffffffffffffffffffffffffffffffffffff1673ffffffffffffffffffffffffffffffffffffffff163373ffffffffffffffffffffffffffffffffffffffff161415156200010e57600080fd5b6006600085815260200190815260200160002060009054906101000a900460ff161515156200013c57600080fd5b60016006600086815260200190815260200160002060006101000a81548160ff0219169083151502179055506007836040518082805190602001908083835b602083101515620001a257805182526020820191506020810190506020830392506200017b565b6001836020036101000a03801982511681845116808217855250505050505090500191505090815260200160405180910390208054806001018281620001e9919062000603565b9160005260206000209001600086909190915055506200021f8484846200022864010000000002620016a2176401000000009004565b90509392505050565b60006200023462000632565b600060a060405190810160405280878152602001868152602001600842604051808281526020019150506040518091039020600190048115156200027457fe5b06815260200160046001420160405180828152602001915050604051809103902060019004811515620002a357fe5b06815260200160146002420160405180828152602001915050604051809103902060019004811515620002d257fe5b068152509150600160008054806001018281620002f091906200066a565b916000526020600020906005020160008590919091506000820151816000015560208201518160010190805190602001906200032e9291906200069f565b5060408201518160020155606082015181600301556080820151816004015550500390508063ffffffff16811415156200036757600080fd5b7fc07d6fc5db170f8be7da51bea7bf502fb674192c618536ee210555994694b0b78482604051808373ffffffffffffffffffffffffffffffffffffffff1673ffffffffffffffffffffffffffffffffffffffff1681526020018281526020019250505060405180910390a1620003f4600085836200040064010000000002620018c6176401000000009004565b80925050509392505050565b600260008373ffffffffffffffffffffffffffffffffffffffff1673ffffffffffffffffffffffffffffffffffffffff16815260200190815260200160002060008154809291906001019190505550816001600083815260200190815260200160002060006101000a81548173ffffffffffffffffffffffffffffffffffffffff021916908373ffffffffffffffffffffffffffffffffffffffff160217905550600073ffffffffffffffffffffffffffffffffffffffff168373ffffffffffffffffffffffffffffffffffffffff161415156200055f57600260008473ffffffffffffffffffffffffffffffffffffffff1673ffffffffffffffffffffffffffffffffffffffff16815260200190815260200160002060008154809291906001900391905055506003600082815260200190815260200160002060006101000a81549073ffffffffffffffffffffffffffffffffffffffff02191690555b7fddf252ad1be2c89b69c2b068fc378daa952ba7f163c4a11628f55a4df523b3ef838383604051808473ffffffffffffffffffffffffffffffffffffffff1673ffffffffffffffffffffffffffffffffffffffff1681526020018373ffffffffffffffffffffffffffffffffffffffff1673ffffffffffffffffffffffffffffffffffffffff168152602001828152602001935050505060405180910390a1505050565b8154818355818115116200062d578183600052602060002091820191016200062c919062000726565b5b505050565b60a060405190810160405280600081526020016200064f6200074e565b81526020016000815260200160008152602001600081525090565b8154818355818115116200069a5760050281600502836000526020600020918201910162000699919062000762565b5b505050565b828054600181600116156101000203166002900490600052602060002090601f016020900481019282601f10620006e257805160ff191683800117855562000713565b8280016001018555821562000713579182015b8281111562000712578251825591602001919060010190620006f5565b5b50905062000722919062000726565b5090565b6200074b91905b80821115620007475760008160009055506001016200072d565b5090565b90565b602060405190810160405280600081525090565b620007b391905b80821115620007af576000808201600090556001820160006200078d9190620007b6565b6002820160009055600382016000905560048201600090555060050162000769565b5090565b90565b50805460018160011615610100020316600290046000825580601f10620007de5750620007ff565b601f016020900490600052602060002090810190620007fe919062000726565b5b50565b611d6c80620008126000396000f300606060405260043610610107576000357c0100000000000000000000000000000000000000000000000000000000900463ffffffff16806306fdde031461010c578063095ea7b31461019a5780630c83f54c146101dc5780630d058fe31461023f57806318160ddd146102d857806323b872dd146103015780632728f4e51461036257806332ff7279146103cc5780636352211e1461042f57806370a082311461049257806370fdcf51146104df5780638462151c1461052c5780638d73d781146105ba5780638d8386221461066c5780638da5cb5b1461072457806395d89b4114610779578063a9059cbb14610807578063b830d68514610849578063f2fde38b14610880575b600080fd5b341561011757600080fd5b61011f6108b9565b6040518080602001828103825283818151815260200191508051906020019080838360005b8381101561015f578082015181840152602081019050610144565b50505050905090810190601f16801561018c5780820380516001836020036101000a031916815260200191505b509250505060405180910390f35b34156101a557600080fd5b6101da600480803573ffffffffffffffffffffffffffffffffffffffff169060200190919080359060200190919050506108f2565b005b34156101e757600080fd5b6101fd60048080359060200190919050506109b4565b604051808273ffffffffffffffffffffffffffffffffffffffff1673ffffffffffffffffffffffffffffffffffffffff16815260200191505060405180910390f35b341561024a57600080fd5b6102c2600480803590602001909190803590602001908201803590602001908080601f0160208091040260200160405190810160405280939291908181526020018383808284378201915050505050509190803573ffffffffffffffffffffffffffffffffffffffff169060200190919050506109e7565b6040518082815260200191505060405180910390f35b34156102e357600080fd5b6102eb610b44565b6040518082815260200191505060405180910390f35b341561030c57600080fd5b610360600480803573ffffffffffffffffffffffffffffffffffffffff1690602001909190803573ffffffffffffffffffffffffffffffffffffffff16906020019091908035906020019091905050610b54565b005b341561036d57600080fd5b610375610c05565b6040518080602001828103825283818151815260200191508051906020019060200280838360005b838110156103b857808201518184015260208101905061039d565b505050509050019250505060405180910390f35b34156103d757600080fd5b6103ed6004808035906020019091905050610c99565b604051808273ffffffffffffffffffffffffffffffffffffffff1673ffffffffffffffffffffffffffffffffffffffff16815260200191505060405180910390f35b341561043a57600080fd5b6104506004808035906020019091905050610ccc565b604051808273ffffffffffffffffffffffffffffffffffffffff1673ffffffffffffffffffffffffffffffffffffffff16815260200191505060405180910390f35b341561049d57600080fd5b6104c9600480803573ffffffffffffffffffffffffffffffffffffffff16906020019091905050610d45565b6040518082815260200191505060405180910390f35b34156104ea57600080fd5b610516600480803573ffffffffffffffffffffffffffffffffffffffff16906020019091905050610d8e565b6040518082815260200191505060405180910390f35b341561053757600080fd5b610563600480803573ffffffffffffffffffffffffffffffffffffffff16906020019091905050610eee565b6040518080602001828103825283818151815260200191508051906020019060200280838360005b838110156105a657808201518184015260208101905061058b565b505050509050019250505060405180910390f35b34156105c557600080fd5b610615600480803590602001908201803590602001908080601f01602080910402602001604051908101604052809392919081815260200183838082843782019150505050505091905050611025565b6040518080602001828103825283818151815260200191508051906020019060200280838360005b8381101561065857808201518184015260208101905061063d565b505050509050019250505060405180910390f35b341561067757600080fd5b61068d60048080359060200190919050506110f4565b6040518080602001868152602001858152602001848152602001838152602001828103825287818151815260200191508051906020019080838360005b838110156106e55780820151818401526020810190506106ca565b50505050905090810190601f1680156107125780820380516001836020036101000a031916815260200191505b50965050505050505060405180910390f35b341561072f57600080fd5b6107376111fb565b604051808273ffffffffffffffffffffffffffffffffffffffff1673ffffffffffffffffffffffffffffffffffffffff16815260200191505060405180910390f35b341561078457600080fd5b61078c611221565b6040518080602001828103825283818151815260200191508051906020019080838360005b838110156107cc5780820151818401526020810190506107b1565b50505050905090810190601f1680156107f95780820380516001836020036101000a031916815260200191505b509250505060405180910390f35b341561081257600080fd5b610847600480803573ffffffffffffffffffffffffffffffffffffffff1690602001909190803590602001909190505061125a565b005b341561085457600080fd5b61086a60048080359060200190919050506112f5565b6040518082815260200191505060405180910390f35b341561088b57600080fd5b6108b7600480803573ffffffffffffffffffffffffffffffffffffffff16906020019091905050611488565b005b6040805190810160405280600c81526020017f4d6f74697638204261646765000000000000000000000000000000000000000081525081565b6108fc33826115e0565b151561090757600080fd5b610911818361164c565b7f8c5be1e5ebec7d5bd14f71427d1e84f3dd0314c0f7b2291e5b200ac8c7c3b925338383604051808473ffffffffffffffffffffffffffffffffffffffff1673ffffffffffffffffffffffffffffffffffffffff1681526020018373ffffffffffffffffffffffffffffffffffffffff1673ffffffffffffffffffffffffffffffffffffffff168152602001828152602001935050505060405180910390a15050565b60016020528060005260406000206000915054906101000a900473ffffffffffffffffffffffffffffffffffffffff1681565b6000600460009054906101000a900473ffffffffffffffffffffffffffffffffffffffff1673ffffffffffffffffffffffffffffffffffffffff163373ffffffffffffffffffffffffffffffffffffffff16141515610a4557600080fd5b6006600085815260200190815260200160002060009054906101000a900460ff16151515610a7257600080fd5b60016006600086815260200190815260200160002060006101000a81548160ff0219169083151502179055506007836040518082805190602001908083835b602083101515610ad65780518252602082019150602081019050602083039250610ab1565b6001836020036101000a03801982511681845116808217855250505050505090500191505090815260200160405180910390208054806001018281610b1b9190611ac8565b916000526020600020900160008690919091505550610b3b8484846116a2565b90509392505050565b6000600160008054905003905090565b600073ffffffffffffffffffffffffffffffffffffffff168273ffffffffffffffffffffffffffffffffffffffff1614151515610b9057600080fd5b3073ffffffffffffffffffffffffffffffffffffffff168273ffffffffffffffffffffffffffffffffffffffff1614151515610bcb57600080fd5b610bd5338261185a565b1515610be057600080fd5b610bea83826115e0565b1515610bf557600080fd5b610c008383836118c6565b505050565b610c0d611af4565b6005805480602002602001604051908101604052809291908181526020018280548015610c8f57602002820191906000526020600020905b8160009054906101000a900473ffffffffffffffffffffffffffffffffffffffff1673ffffffffffffffffffffffffffffffffffffffff1681526020019060010190808311610c45575b5050505050905090565b60036020528060005260406000206000915054906101000a900473ffffffffffffffffffffffffffffffffffffffff1681565b60006001600083815260200190815260200160002060009054906101000a900473ffffffffffffffffffffffffffffffffffffffff169050600073ffffffffffffffffffffffffffffffffffffffff168173ffffffffffffffffffffffffffffffffffffffff1614151515610d4057600080fd5b919050565b6000600260008373ffffffffffffffffffffffffffffffffffffffff1673ffffffffffffffffffffffffffffffffffffffff168152602001908152602001600020549050919050565b600080600460009054906101000a900473ffffffffffffffffffffffffffffffffffffffff1673ffffffffffffffffffffffffffffffffffffffff163373ffffffffffffffffffffffffffffffffffffffff16141515610ded57600080fd5b600090505b600580549050811015610e81578273ffffffffffffffffffffffffffffffffffffffff16600582815481101515610e2557fe5b906000526020600020900160009054906101000a900473ffffffffffffffffffffffffffffffffffffffff1673ffffffffffffffffffffffffffffffffffffffff1614151515610e7457600080fd5b8080600101915050610df2565b600160058054806001018281610e979190611b08565b9160005260206000209001600086909190916101000a81548173ffffffffffffffffffffffffffffffffffffffff021916908373ffffffffffffffffffffffffffffffffffffffff16021790555003915050919050565b610ef6611b34565b6000610f00611b34565b6000806000610f0e87610d45565b94506000851415610f40576000604051805910610f285750595b9080825280602002602001820160405250955061101b565b84604051805910610f4e5750595b90808252806020026020018201604052509350610f69610b44565b925060009150600190505b8281111515611017578673ffffffffffffffffffffffffffffffffffffffff166001600083815260200190815260200160002060009054906101000a900473ffffffffffffffffffffffffffffffffffffffff1673ffffffffffffffffffffffffffffffffffffffff16141561100a57808483815181101515610ff357fe5b906020019060200201818152505081806001019250505b8080600101915050610f74565b8395505b5050505050919050565b61102d611b34565b60006007836040518082805190602001908083835b6020831015156110675780518252602082019150602081019050602083039250611042565b6001836020036101000a03801982511681845116808217855250505050505090500191505090815260200160405180910390209050808054806020026020016040519081016040528092919081815260200182805480156110e757602002820191906000526020600020905b8154815260200190600101908083116110d3575b5050505050915050919050565b6110fc611b48565b60008060008060008660008054905011151561111757600080fd5b60008781548110151561112657fe5b90600052602060002090600502019050806001018054600181600116156101000203166002900480601f0160208091040260200160405190810160405280929190818152602001828054600181600116156101000203166002900480156111ce5780601f106111a3576101008083540402835291602001916111ce565b820191906000526020600020905b8154815290600101906020018083116111b157829003601f168201915b50505050509550806002015494508060030154935080600401549250806000015491505091939590929450565b600460009054906101000a900473ffffffffffffffffffffffffffffffffffffffff1681565b6040805190810160405280600781526020017f4d3842616467650000000000000000000000000000000000000000000000000081525081565b600073ffffffffffffffffffffffffffffffffffffffff168273ffffffffffffffffffffffffffffffffffffffff161415151561129657600080fd5b3073ffffffffffffffffffffffffffffffffffffffff168273ffffffffffffffffffffffffffffffffffffffff16141515156112d157600080fd5b6112db33826115e0565b15156112e657600080fd5b6112f13383836118c6565b5050565b600080600460009054906101000a900473ffffffffffffffffffffffffffffffffffffffff1673ffffffffffffffffffffffffffffffffffffffff163373ffffffffffffffffffffffffffffffffffffffff1614151561135457600080fd5b600580549050831015151561136857600080fd5b8290505b60016005805490500381101561141f5760056001820181548110151561138e57fe5b906000526020600020900160009054906101000a900473ffffffffffffffffffffffffffffffffffffffff166005828154811015156113c957fe5b906000526020600020900160006101000a81548173ffffffffffffffffffffffffffffffffffffffff021916908373ffffffffffffffffffffffffffffffffffffffff160217905550808060010191505061136c565b600560016005805490500381548110151561143657fe5b906000526020600020900160006101000a81549073ffffffffffffffffffffffffffffffffffffffff021916905560058054809190600190036114799190611b5c565b50600580549050915050919050565b600460009054906101000a900473ffffffffffffffffffffffffffffffffffffffff1673ffffffffffffffffffffffffffffffffffffffff163373ffffffffffffffffffffffffffffffffffffffff161415156114e457600080fd5b600073ffffffffffffffffffffffffffffffffffffffff168173ffffffffffffffffffffffffffffffffffffffff161415151561152057600080fd5b8073ffffffffffffffffffffffffffffffffffffffff16600460009054906101000a900473ffffffffffffffffffffffffffffffffffffffff1673ffffffffffffffffffffffffffffffffffffffff167f8be0079c531659141344cd1fd0a4f28419497f9722a3daafe3b4186f6b6457e060405160405180910390a380600460006101000a81548173ffffffffffffffffffffffffffffffffffffffff021916908373ffffffffffffffffffffffffffffffffffffffff16021790555050565b60008273ffffffffffffffffffffffffffffffffffffffff166001600084815260200190815260200160002060009054906101000a900473ffffffffffffffffffffffffffffffffffffffff1673ffffffffffffffffffffffffffffffffffffffff1614905092915050565b806003600084815260200190815260200160002060006101000a81548173ffffffffffffffffffffffffffffffffffffffff021916908373ffffffffffffffffffffffffffffffffffffffff1602179055505050565b60006116ac611b88565b600060a060405190810160405280878152602001868152602001600842604051808281526020019150506040518091039020600190048115156116eb57fe5b0681526020016004600142016040518082815260200191505060405180910390206001900481151561171957fe5b0681526020016014600242016040518082815260200191505060405180910390206001900481151561174757fe5b0681525091506001600080548060010182816117639190611bbe565b9160005260206000209060050201600085909190915060008201518160000155602082015181600101908051906020019061179f929190611bf0565b5060408201518160020155606082015181600301556080820151816004015550500390508063ffffffff16811415156117d757600080fd5b7fc07d6fc5db170f8be7da51bea7bf502fb674192c618536ee210555994694b0b78482604051808373ffffffffffffffffffffffffffffffffffffffff1673ffffffffffffffffffffffffffffffffffffffff1681526020018281526020019250505060405180910390a161184e600085836118c6565b80925050509392505050565b60008273ffffffffffffffffffffffffffffffffffffffff166001600084815260200190815260200160002060009054906101000a900473ffffffffffffffffffffffffffffffffffffffff1673ffffffffffffffffffffffffffffffffffffffff1614905092915050565b600260008373ffffffffffffffffffffffffffffffffffffffff1673ffffffffffffffffffffffffffffffffffffffff16815260200190815260200160002060008154809291906001019190505550816001600083815260200190815260200160002060006101000a81548173ffffffffffffffffffffffffffffffffffffffff021916908373ffffffffffffffffffffffffffffffffffffffff160217905550600073ffffffffffffffffffffffffffffffffffffffff168373ffffffffffffffffffffffffffffffffffffffff16141515611a2457600260008473ffffffffffffffffffffffffffffffffffffffff1673ffffffffffffffffffffffffffffffffffffffff16815260200190815260200160002060008154809291906001900391905055506003600082815260200190815260200160002060006101000a81549073ffffffffffffffffffffffffffffffffffffffff02191690555b7fddf252ad1be2c89b69c2b068fc378daa952ba7f163c4a11628f55a4df523b3ef838383604051808473ffffffffffffffffffffffffffffffffffffffff1673ffffffffffffffffffffffffffffffffffffffff1681526020018373ffffffffffffffffffffffffffffffffffffffff1673ffffffffffffffffffffffffffffffffffffffff168152602001828152602001935050505060405180910390a1505050565b815481835581811511611aef57818360005260206000209182019101611aee9190611c70565b5b505050565b602060405190810160405280600081525090565b815481835581811511611b2f57818360005260206000209182019101611b2e9190611c70565b5b505050565b602060405190810160405280600081525090565b602060405190810160405280600081525090565b815481835581811511611b8357818360005260206000209182019101611b829190611c70565b5b505050565b60a06040519081016040528060008152602001611ba3611c95565b81526020016000815260200160008152602001600081525090565b815481835581811511611beb57600502816005028360005260206000209182019101611bea9190611ca9565b5b505050565b828054600181600116156101000203166002900490600052602060002090601f016020900481019282601f10611c3157805160ff1916838001178555611c5f565b82800160010185558215611c5f579182015b82811115611c5e578251825591602001919060010190611c43565b5b509050611c6c9190611c70565b5090565b611c9291905b80821115611c8e576000816000905550600101611c76565b5090565b90565b602060405190810160405280600081525090565b611cf591905b80821115611cf157600080820160009055600182016000611cd09190611cf8565b60028201600090556003820160009055600482016000905550600501611caf565b5090565b90565b50805460018160011615610100020316600290046000825580601f10611d1e5750611d3d565b601f016020900490600052602060002090810190611d3c9190611c70565b5b505600a165627a7a72305820bee3373a85b178919517f13d97cde85db0acfaa8e2c78d393bcce2ec9d508d150029",
  "source": "pragma solidity ^0.4.17;\nimport \"./M8BadgeOwnership.sol\";\nimport 'node_modules/zeppelin-solidity/contracts/ownership/Ownable.sol';\n\ncontract M8BadgeToken is M8BadgeOwnership, Ownable {    \n\n    address[] donationWallets;\n    mapping(uint=>bool) claimedTransactions;\n    mapping(string=>uint[]) challengeTransactions;\n\n    function M8BadgeToken() public {\n        create(0, \"Challenge 0\", msg.sender);\n    }\n\n    function create(uint _txHash, string _challengeId, address _owner ) onlyOwner public returns (uint) {\n        require(!claimedTransactions[_txHash]);  \n        //@dev TODO: implement merkle proof protection              \n        claimedTransactions[_txHash] = true;\n        challengeTransactions[_challengeId].push(_txHash);\n        return _createBadge(_txHash, _challengeId, _owner);\n    }\n\n    function claimedChallengeTransactions(string _challengeId) public view returns (uint[] txHashes) {\n        uint[] storage txs = challengeTransactions[_challengeId];\n        txHashes = txs;\n    }\n\n    /// @dev returns badge information\n    function getBadge(uint256 _tokenId) public view returns (string challenge, uint face, uint mask, uint color, uint txHash) {\n        require(badges.length > _tokenId);\n        M8Badge storage badge = badges[_tokenId];\n        challenge = string(badge.challenge);\n        face = uint(badge.face);\n        mask = uint(badge.mask);\n        color = uint(badge.color);\n        txHash = uint(badge.txHash);\n    }\n\n    function addDonationWallet(address wallet) onlyOwner public returns(uint256) {\n        for (uint256 index = 0; index < donationWallets.length; index ++) {\n            require(donationWallets[index] != wallet);\n        }\n        return donationWallets.push(wallet) - 1;\n    }\n\n    function deleteWallet(uint256 walletId) onlyOwner public returns(uint256) {\n        require(walletId >= donationWallets.length);   \n\n        for (uint i = walletId; i<donationWallets.length-1; i++) {\n            donationWallets[i] = donationWallets[i+1];\n        }\n        delete donationWallets[donationWallets.length-1];\n        donationWallets.length--;\n        return donationWallets.length;\n    }\n\n    function allWallets() public view returns (address[]) {\n        return donationWallets;\n    }\n}",
  "sourcePath": "/Users/bomalkevych/Documents/blockchain/motiv8/contracts/M8BadgeToken.sol",
  "compiler": {
    "name": "solc",
    "version": "0.4.18+commit.9cf6e910.Emscripten.clang"
  },
  "schemaVersion": "1.0.1",
  "updatedAt": "2018-01-21T08:26:29.290Z"
}